S02B0000433A2F55736572732F636F6E6E732F53696D706C696369747953747564696F2F626172655F6D65748A
S1130000001000205D0200003121000031210000B9
S11300103121000031210000312100003121000094
S11300203121000031210000312100003121000084
S11300303121000031210000312100003121000074
S11300403121000031210000312100003121000064
S11300503121000031210000312100003121000054
S11300603121000031210000291C00003121000051
S11300703121000031210000312100003121000034
S11300803121000031210000312100003121000024
S11300903121000031210000312100003121000014
S11300A0312100009D08000081080000312100007A
S11300B031210000312100003121000031210000F4
S11300C031210000312100003121000031210000E4
S11300D031210000312100003121000031210000D4
S11300E031210000312100003121000031210000C4
S11300F031210000312100003121000031210000B4
S113010031210000312100003121000031210000A3
S11301103121000031210000312100003121000093
S11301203121000031210000312100003121000083
S10701303121000075
S11301340348044B834202D0034B03B1184770476E
S1130144E8110020E811002000000000064B0749D4
S1130154C91A891048BF0131491003D0044B0BB1AB
S113016401481847704700BFE8110020E811002037
S11301740000000010B5064C237843B9FFF7D8FFFC
S1130184044B13B10448AFF300800123237010BD62
S1130194B811002000000000082F000008B5054B2A
S11301A41BB105490548AFF30080BDE80840FFF7DB
S11301B4CDBF00BF0000000000100020082F000085
S11301C4A3F5803A704700BF174B002B08BF134BAD
S11301D49D46FFF7F5FF00218B460F461348144A4A
S11301E4121A02F0E3F80E4B002B00D098470D4B83
S11301F4002B00D098470020002104000D000D4876
S1130204002802D00C48AFF3008001F069FF2000FD
S1130214290002F0C1F801F051FF00BF00000800FA
S11302240000000000000000001000200010002066
S1130234C411002000000000000000000348044A28
S11302440449121A921001F072BF00BF3401000075
S113025434010000C411002008B500F02FF8FFF7A2
S1130264EDFF124B12498B4212D30020114B124959
S11302748B4218D3FFF7A8FF186850F82240586837
S113028440F82240013298688242F5D30C33EAE7FD
S11302940022F8E71C6844F8220001325C68A24298
S11302A4F8D30833E4E70022F8E700BF102F000076
S11302B41C2F00001C2F00001C2F0000124B134A9B
S11302C470B59A60D3F88820114D42F47002C3F8D3
S11302D488206FF0010205F50054226641F2FF7292
S11302E462660222C3F8D020BFF34F8FBFF36F8F2F
S11302F44FF44036032001F0CBFB0320E66001F009
S113030495FB2E6170BD00BF00ED00E0000000000D
S113031400800044014B1860704700BFC8110020DE
S113032430B5056887B0AB8804461E48ADF80C3078
S113033401F0FCFF0022012103A800F083F80DF171
S11303440B0103A800F076F99DF80B3083F0010348
S11303542B70AB79022B19D14FF0FF330022CDE976
S113036404330094104B04A903A800F02BFA049B53
S1130374009401330C4B0CD1042205A903A800F00A
S11303848BF918B16F21094801F0CEFE002007B0A3
S113039430BD012205A903A800F07EF90028F5D098
S11303A47E21F0E7D02D000059210000F82A000036
S11303B42DE9F04104460C254FF00108124E0CB30C
S11303C414F001000BD0002024F0010405FB0062AA
S11303D45768002FF3D09168C0B2B847EFE72246BC
S11303E4013020284FEA520201D0D307F8D508FA85
S11303F400F20F2824EA0204E8D9103805FB00624D
S1130404B432E5E7BDE8F0811810002008B50C48C3
S113041401F08CFF192001F023FB28B1192001F00D
S113042437FB192001F002FB1A2001F019FB28B153
S11304341A2001F02DFB1A2001F0F8FA002008BD5F
S1130444D02D00002DE9F0410E461746044638B974
S11304549121194801F068FE22252846BDE8F0815F
S11304640F290BD803787BB1013BDBB2022B05D8EF
S1130474124AD35C6278D340DB0707D495210E4833
S113048401F052FE2125E8E77F23F3E70C4BD3F870
S113049410532DB19921084801F046FE0225DCE7EA
S11304A402F0A8FA80463A462046314601F09EF806
S11304B4404602F09AFAD0E7672B0000CB2B0000E9
S11304C400C0035038B5044628B91248E22101F0AB
S11304D42BFE222038BD03787BB1013BDBB2022B17
S11304E405D80D4AD35C6278D340DB0707D40948A6
S11304F4E62101F019FE2120ECE77F23F3E702F063
S113050479FA0546204601F0EDFF284602F06DFA1B
S11305140020DFE7672B0000CB2B000038B504462E
S113052428B91248FA2101F0FFFD222038BD0378CE
S11305347BB1013BDBB2022B05D80D4AD35C627854
S1130544D340DB0707D40948FE2101F0EDFD212047
S1130554ECE77F23F3E702F04DFA0546204600F06A
S113056443FF284602F041FA0020DFE7672B00002E
S1130574CB2B000038B5044630B913484FF48971C5
S113058401F0D2FD222038BD037883B1013BDBB2F4
S1130594022B05D80D4AD35C6278D340DB0708D418
S11305A409484FF48B7101F0BFFD2120EBE77F2351
S11305B4F2E702F01FFA0546204600F09BFF2846A6
S11305C402F013FA0020DEE7672B0000CB2B0000B7
S11305D470B50D46044600B131B9144840F22B11EC
S11305E401F0A2FD222070BD037883B1013BDBB28C
S11305F4022B05D80E4AD35C6278D340DB0708D4B7
S11306040A4840F22F1101F08FFD2120EBE77F23EC
S1130614F2E702F0EFF90646204600F03FFF2870A7
S1130624304602F0E2F90020DDE700BF672B00004A
S1130634CB2B000070B50D46044600B131B9144803
S11306444FF4A27101F070FD222070BD037883B1D0
S1130654013BDBB2022B05D80E4AD35C6278D3404B
S1130664DB0708D40A484FF4A47101F05DFD21208E
S1130674EBE77F23F2E702F0BDF90646204600F0DB
S1130684E1FE2870304602F0B0F90020DDE700BF37
S1130694672B0000CB2B00002DE9F0410D461646D4
S11306A49846044600B139B92E484FF4DF7101F07D
S11306B43BFD2220BDE8F0810378CBB15A1ED2B2AF
S11306C4022A08D9FF2B0CD04FF4E171254801F01C
S11306D42BFD2120EEE7244B9B5C4278D340DA07C0
S11306E4F2D5022E07D9042E05D04FF4E371EDE7B9
S11306F47F234278F2E702F07DF923780746FF2B43
S113070405D032462046296800F0DCFF28602B68B7
S1130714013309D12378FF2B06D1144B6078D3F825
S1130724241401F0E7FD286029684B1C14D00C2321
S11307340F4A03FB0122069BC2F8048093602378CA
S1130744FF2B04D001230B4A8B40C2F824343846CF
S113075402F04BF90020ADE7384602F046F92D20AB
S1130764A8E700BF672B0000CB2B000000C0035098
S11307741810002000D003500F2810B5044606D9E1
S11307840D4840F2EF1101F0CFFC212010BD02F01E
S113079431F90123094AA340C2F82034C2F82434AD
S11307A40C22074B02FB04330024C3E9014402F086
S11307B41CF92046EAE700BF672B000000E0035061
S11307C4181000202DE9F0410D4690461F460446BA
S11307D400B139B9254840F22A2101F0A5FC2220B0
S11307E4BDE8F0810378002B38D0591EC9B2022920
S11307F408D9FF2B0CD01D4840F22F2101F094FCA2
S11308042120EDE71A4B42785B5CD340DA07F2D53A
S113081402F0F0F823780646FF2B05D04246204622
S1130824296801F027F828602A68531C19D00C237E
S1130834104903FB0211069BC1F8B870C1F8BC301F
S11308442378FF2B05D00123103293400A4AC2F8BF
S11308542434304602F0C9F80020C1E77F234278EB
S1130864D3E7304602F0C1F82D20B9E7672B000026
S1130874CB2B00001810002000D0035008B500F062
S113088467FE044B00F05530C3F82004BDE808406B
S1130894FFF78EBD00E0035008B500F059FE044B89
S11308A400F0AA30C3F82004BDE80840FFF780BD77
S11308B400E0035013B504460A4801F037FDA2785A
S11308C40421B2FA82F2237852098DF80430637851
S11308D40DEB01008DF80530FFF7B4FD002002B0E4
S11308E410BD00BFD02D000038B5104B0546D3F819
S11308F400310C4603F00303022B0BD0032B0DD061
S1130904012B0FD101F09AFD032305B1286004B132
S1130914236038BD01F0E0FD0723F6E701F094FD00
S11309240623F2E701230020EFE700BF0080005014
S113093438B5104B0546D3F840310C4603F0030395
S1130944022B0BD0032B0DD0012B0FD102F058F83E
S1130954082305B1286004B1236038BD01F0BCFD4F
S11309640723F6E702F04FF80923F2E701230020F6
S1130974EFE700BF0080005038B5104B0546D3F8AC
S113098460310C4603F00303022B0BD0032B0DD070
S1130994012B0FD102F034F8082305B1286004B107
S11309A4236038BD01F098FD0723F6E702F02BF825
S11309B40923F2E701230020EFE700BF0080005081
S11309C441F67133124A30B5D469124DD363936836
S11309D4A84204F4803423F4401306D893600E4AE6
S11309E4D2F8183223F002030AE043F4801393602C
S11309F40A4B9842F3D9084AD2F8183243F0020356
S1130A04C2F8183214B10022014BDA6330BD00BFBE
S1130A1400000350005A620200C0075080F0FA023A
S1130A2438B5164B0546D3F820010C4600F00700F0
S1130A34042818D8DFE800F01F030B0F130001F09B
S1130A44BDFC042305B1286004B1236038BD01F062
S1130A54F5FC0323F6E701F0FBFC0523F2E701F0C0
S1130A64E9FC0223EEE7064841F2912101F05CFB24
S1130A7400231846E6E70123E4E700BF00800050A2
S1130A84CE2B000073B50024144B0194D3F88031A9
S1130A94064603F00303022B0D460FD0032B12D09A
S1130AA4012B15D1214601A8FFF7BAFF0D240EB17D
S1130AB4019A326005B12C6002B070BD01F0C8FC2B
S1130AC405240190F3E701F0B5FC02240190EEE75C
S1130AD441F2E631024801F027FBE8E700800050C8
S1130AE4CE2B000038B5164B0546D3F800020C464D
S1130AF400F00700042819D8DFE800F020030B0FE6
S1130B04130001F07DFF082305B1286004B12360BC
S1130B1438BD01F0E1FC0723F6E701F074FF092373
S1130B24F2E701F071FC0C23800AEDE7054841F279
S1130B34A44101F0F9FA00231846E5E70123E3E7A9
S1130B4400800050CE2B000038B5164B0546D3F870
S1130B5408020C4600F00700042819D8DFE800F066
S1130B6420030B0F130001F04BFF082305B1286089
S1130B7404B1236038BD01F0AFFC0723F6E701F0AC
S1130B8442FF0923F2E701F03FFC0C23800AEDE75E
S1130B94054841F2DC4101F0C7FA00231846E5E7B1
S1130BA40123E3E700800050CE2B000038B50F4B3F
S1130BB40546D3F880300C4603F00303022B09D016
S1130BC4032B0FD00A4841F2142101F0ADFA00239B
S1130BD4184602E001F018FC0B2305B1286004B1A7
S1130BE4236038BD01F034FC0523F6E7008000508F
S1130BF4CE2B000038B5124B0546D3F840320C46D0
S1130C0403F00303022B0BD0032B0DD0012B0FD1C4
S1130C1401F0F6FE082305B1286004B1236038BD51
S1130C2401F05AFC0723F6E701F0EDFE0923F2E78D
S1130C34044841F22F4101F077FA00231846EAE709
S1130C4400800050CE2B000008B5334B98424FD09F
S1130C5427D8324B984245D017D8314B98423ED0CE
S1130C640AD838B12F4B984239D041F2BB312E48BF
S1130C7401F05AFA002034E02C4B98422FD02C4B2C
S1130C849842F2D12B4B586E2BE02B4B98422CD02C
S1130C9403F5371303F5D8639842E6D1254B986FCF
S1130CA41FE0264B98422FD00CD8254B984223D0D2
S1130CB4244B984224D0244B9842D6D11D4BD3F8CC
S1130CC484000EE0214B984222D003F5740303F50B
S1130CD410539842C9D1174BD3F8980001E0154B2F
S1130CE4986D08BD134B186FFBE7124B586FF8E768
S1130CF4104BD3F88000F4E70E4BD3F88800F0E7E8
S1130D040C4BD3F88C00ECE70A4BD3F89000E8E7DB
S1130D14084BD3F89400E4E780BA8C01405DC60024
S1130D2480841E0040420F00CE2B000000093D00C9
S1130D34C0CF6A000080E00F0024F400007E560354
S1130D4480D54302006CDC020048E8010090D00323
S1130D54032810B51BD005D8012805D0022810D0CB
S1130D6400240CE00F28FBD10B4B1C6FC4F301349B
S1130D74022C04D140F27F21084801F0D5F9601C0B
S1130D8410BD054BD3F89040C4F30464F7E7024B59
S1130D941C6FC4F38024F2E700800050CE2B0000C3
S1130DA41FB500230193252874D8DFE800F0131934
S1130DB41C262B353A50555A5F64696E73193F7378
S1130DC4735519262B26351950266E3A3A3A3A2683
S1130DD426265A5F01F0F8FA0190019804B010BD78
S1130DE401F012FBF8E701F0EFFA04460220FFF7E2
S1130DF4AFFFB4FBF0F40194EFE701F005FB044604
S1130E040320F4E701F000FB04460320FFF7A0FFEE
S1130E14B4FBF0F46408EEE7002101A8FFF732FE06
S1130E24DBE7002101A8FFF7FBFDD6E702934FF0AF
S1130E34E0231B695B0705D501F0E6FA0290029BE7
S1130E440193CAE703A902A8FFF772FDF7E700219B
S1130E5401A8FFF76DFDC0E7002101A8FFF78CFD91
S1130E64BBE7002101A8FFF73DFEB6E7002101A876
S1130E74FFF76AFEB1E7002101A8FFF735FDACE7EF
S1130E84002101A8FFF792FEA7E7002101A8FFF7BC
S1130E94B1FEA2E740F2B231014801F045F99CE702
S1130EA4CE2B000008B50120FFF77AFFBDE8084007
S1130EB40349884294BF01210221032000F002B8AF
S1130EC480F0FA02032810B53DD00AD801280AD0CC
S1130ED4022826D04FF44671BDE81040224801F0A0
S1130EE423B90F28F6D14C1E012C06D9042904D0A9
S1130EF440F2C9211C4801F017F901F0D8F901F0B6
S1130F04DEF91A4A136F23F4405343EA0433136794
S1130F1401F07AFA0021FFF753FDBDE81040FFF712
S1130F24C1BF4C1E1F2C04D94FF443710E4801F069
S1130F34FBF80E4AD2F8903023F0F85343EA0463E2
S1130F44C2F8903010BD4C1E012C04D940F2123169
S1130F54054801F0E9F8054A136F23F4806343EA72
S1130F6484231367EEE700BFCE2B000000800050FB
S1130F741FB50023019325286FD8DFE800F0136E12
S1130F846E6E6E2D354B50555A5F64696E6E3A6EB3
S1130F946E506E6E6E6E2D6E4B6E69353535356ED4
S1130FA46E6E555A2E4B1B6F03F00703013B032B44
S1130FB40CD8DFE803F009020507042301930FE0CA
S1130FC40323FBE70623F9E70223F7E740F2D641BC
S1130FD4244801F0A9F803E0002001A9FFF752FD19
S1130FE4019805B05DF804FB002001A9FFF718FD82
S1130FF4F6E702934FF0E0231B695B0705D501F084
S113100403FA0B230393039BD8E703A902A8FFF76E
S11310148FFCF8E7002001A9FFF78AFCE0E7002031
S113102401A9FFF7A9FCDBE7002001A9FFF75AFD9A
S1131034D6E7002001A9FFF787FDD1E7002001A925
S1131044FFF752FCCCE7002001A9FFF7AFFDC7E787
S1131054002001A9FFF7CEFDC2E740F28951B7E7AA
S113106400800050CE2B000008B50320FFF770FE6B
S1131074034B187001F01BF9BDE8084001F01FB9D7
S1131084B911002010B5044601F0BEF90021FFF7A0
S113109497FC1CB1BDE81040FFF704BF034B0320C9
S11310A4BDE810401978FFF70DBF00BFB911002047
S11310B4024A536A23F001035362704700C0075085
S11310C470B50546FFF7C0FD431E0333044604D937
S11310D440F6E211284801F027F8284B5A68012AFF
S11310E404D127494A609A699207FCD10020FFF78A
S11310F43FFF042803D101F0DAF801F0E0F8214AB3
S113110424F04073954228D01F4A954228D01F4C9E
S1131114E26812F0060FFBD1A668A360A2685340EC
S113112413F4F81F1FD12846FFF7F4F80020FFF743
S11311341FFF04281ED101F067F98542044604D236
S113114440F63B210C4800F0EFFF20460021FFF756
S113115437FCBDE87040FFF7A5BE43F00073D6E743
S113116443F08073D3E740F62A21034800F0DCFF00
S1131174A660DBE770BD00BFCE2B000000C00150A9
S113118400E0015040420F0080841E000000015022
S1131194454B10B59842044665D03BD8A3F5B70334
S11311A4A3F5586398425AD02DD8404B98424AD05C
S11311B413D8002863D041F2DE113D4800F0B4FF97
S11311C440F686713A4800F0AFFF384B9C4269D030
S11311D4384B9C4258D1002332E0364B984226D0F7
S11311E4354B9842E7D1354BD3F8A040621E033205
S11311F424F0407404D940F686712D4800F094FF1D
S11312042F4A946010BD2F4B9842D4D12B4BD3F862
S1131214BC40EBE72C4B984229D02C4B98422AD063
S11312242B4B9842C7D1254BD3F8C840DEE7234B58
S1131234D3F8A040621E033224F040742CD8234611
S113124443F08074DCE71D4BD3F8A040621E0332E4
S113125424F040741AD8234643F00074D0E7174BA3
S1131264D3F8B840C2E7154BD3F8C040BEE7134BDC
S1131274D3F8CC40BAE7114BD3F8D040B6E740F6E4
S113128486710B4800F050FF0024B9E740F68671DC
S1131294074800F049FFDEE740F68671044800F091
S11312A443FFCCE70023D7E7C0EA210140420F0003
S11312B4CE2B000080841E0000093D000080E00F56
S11312C40040015A0024F4000048E801005A620274
S11312D480BA8C01034A0179D36E23F030030B43A3
S11312E4D366704700400050022838B505460C46C2
S11312F403D94C210C4800F017FFE3786278217875
S11313045B0143EA820322790B4343EA02130C226E
S11313146A4302F1B0421363012902BFA278034B6A
S113132443F8252038BD00BF2B2C0000D080035087
S113133408B54FF0B0435A686AB958B15B680BB149
S113134400F0C1FF01210D4B596000F0BCFF4FF0C8
S1131354B043D96008BD5B680BB100F0B4FF00284A
S1131364F0D100F0B0FF4FF0B0430222DA6000F095
S1131374AAFF0122024B5A60ECE700BF0010005898
S1131384002000584FF0B0414B6810B50BB100F089
S11313949AFF01220B4BC4785A608378934043EA42
S11313A4840344782343047943EA0413447943EAE1
S11313B4C4038B60044B5A600378C3F10203CB600B
S11313C410BD00BF0020005800100058054B5B6995
S11313D4C3F38512827003F03F021B0B4270037047
S11313E4704700BF00C0075010B5044620B94FF43D
S11313F40371124800F098FE2378E3B1013BDBB299
S1131404022B05D80E4AD35C6278D340DB0704D49C
S113141440F20D21094800F087FE01226178237807
S11314248A4030214B4342F2100103F1A04303F5F7
S113143470335A5010BD7F23E6E700BF892C0000A7
S1131444BD2D000010B5044620B940F229211148ED
S113145400F06AFE2378DBB1013BDBB2022B05D832
S11314640D4AD35C6278D340DB0704D440F22A21CA
S1131474084800F059FE30222378534303F1A04373
S113148403F5703358696378D84000F0010010BD47
S11314947F23E7E7892C0000BD2D000010B5044626
S11314A420B940F23A21114800F03EFE2378DBB122
S11314B4013BDBB2022B05D80D4AD35C6278D340DE
S11314C4DB0704D440F23B21084800F02DFE30220F
S11314D42378534303F1A04303F570331869637805
S11314E4D84000F0010010BD7F23E7E7892C0000F9
S11314F4BD2D000010B5044620B940F26521124800
S113150400F012FE2378E3B1013BDBB2022B05D8D1
S11315140E4AD35C6278D340DB0704D440F26621DC
S1131524094800F001FE0122617823788A403021C1
S11315344B4343F2100103F1A04303F570335A50B3
S113154410BD7F23E6E700BF892C0000BD2D0000F9
S1131554034BD3F82424D3F820041040704700BF6D
S113156400C0035010B5044620B940F2E9211648DE
S113157400F0DAFD23782BB96078053818BF4FF0F2
S1131584FF3010BD012B06D16378012B14BF4FF03B
S1131594FF300320F5E7022B07D1637873B1052BE1
S11315A414BF4FF0FF300720EBE7032B08D1637817
S11315B4022B14BF4FF0FF300920E2E70620E0E7D6
S11315C44FF0FF30DDE700BF892C0000064BDA6ED4
S11315D402F03002202A06D0DA6E22F0300208B17A
S11315E442F01002DA667047004000502DE9F041E1
S11315F4037804460D4617460BB3013BDBB2022BBA
S113160405D82B4AD35C6278D340DB0703D4592131
S1131614284800F089FD284BD3F810331BB15A2114
S1131624244800F081FD0F2D0BD8DFE805F0322D9E
S11316342D2D2D2D2D2D2D2D2D2D2D2D2D2D7F238A
S1131644E1E7AE211B4800F06FFD4FF0000820468F
S1131654E7B100F047FF63782678072B06EB4606CC
S11316644FF00F014FEA061615D89B00134808FAE9
S113167403F29940304400F02EFEBDB920468FB1E8
S1131684BDE8F04100F02EBFA846E0E7FFF7ACFE4A
S1131694E1E7A846DFE7083B9B00094808FA03F2A0
S11316A49940E7E7BDE8F041FFF79EBEBDE8F0814D
S11316B4BD2D0000F02C000000C0035004C00350F2
S11316C40CC003502DE9F047037807460C46164630
S11316D4002B4FD0013BDBB2022B05D8434AD35C29
S11316E47A78D340DA0704D44FF49971404800F06F
S11316F41BFD022E06D9042E04D040F233113C48BB
S113170400F012FD3B4DD5F8103323B14FF49A7118
S1131714374800F009FD002C2EDB7B786340032B53
S113172404D94FF49C71324800F0FEFC0125072CC7
S113173406F0050A05FA04F506F0060628DC4FF05F
S113174403084FEA84093A7808FA09F841462A4812
S113175402FA09F200F0BFFD7A78414602F003026E
S1131764264802FA09F200F0B6FDBAF1000F21D1BD
S1131774234B20E07F23B3E7631C06D1D5F824145C
S1131784787800F0B7FD041ED0DA2046BDE8F0876F
S1131794BAF1000F14D01F2C0CDD6C21194800F091
S11317A4C3FC194BC3F8105496B96C21154800F0C6
S11317B4BBFC03E0144BC3F810546EB9104B0CE09B
S11317C41F2CD5DD6C210F4800F0AEFC0C4BE9E76F
S11317D46C210C4800F0A8FC0B4BC3F814540123EF
S11317E4074AA340C2F82034CFE700BFBD2D000050
S11317F4F02C000000C0035000C4035008C403507C
S113180400E00350572D000000D0035070B5154E6E
S1131814054630420C4604D040F28311124800F0CD
S113182483FC344204D04FF4C2710F4800F07CFCB2
S11318340E4B2C40D3F83024012022EA0502C3F8CD
S11318443024D3F830241443C3F83044D3F82C247C
S11318542A43C3F82C24FFF7B9FE054BC3F82054DC
S113186470BD00BFFFFF00F0F02C000000C0035067
S113187400E00350F8B5037805460F4616460BB34B
S1131884013BDBB2022B05D81A4AD35C6A78D340F5
S1131894D80704D440F29511174800F045FC174BBF
S11318A4D3F8103323B14FF4CB71134800F03CFC4C
S11318B42846FFF757FE791C044605D1421C07D17C
S11318C42046F8BD7F23E1E7431CF9D0B8420ED18A
S11318D42846032186F00102FFF788FE012004F163
S11318E4100306FA03F19840FFF790FFE8E74FF07E
S11318F4FF34E5E7BD2D0000F02C000000C00350C8
S113190410B53D483D4CFFF7DBFB3D48FFF740FC79
S1131914FFF7AAFB236F002023F0070343F002031D
S11319242367FFF7AFFB236F23F450532367354B2F
S1131934D3F8FC20D2014AD4D4F8803023F0030332
S113194443F00203C4F880302C4BD3F8202122F056
S1131954070242F00102C3F82021D3F8802122F0C7
S1131964030242F00102C3F88021D3F8402122F09B
S1131974030242F00102C3F84021D3F8602122F0AB
S1131984030242F00102C3F86021D3F8402222F09A
S1131994030242F00102C3F84022D3F8002222F0E9
S11319A4070242F00102C3F80022D3F8082222F00D
S11319B4070242F00102C3F80822FFF779FB4FF053
S11319C4E0221369002043F00403136110BDD3F82B
S11319D4FC2022F08072C3F8FC20D4F8802022F08A
S11319E4030242F00202C4F88020D3F8FC2042F03F
S11319F48072C3F8FC20A7E700B4C404008000503C
S1131A04C0EA210100ED00E013B50024064A68464B
S1131A14536F43F00103536700948DF80440FFF7B8
S1131A2459FC204602B010BD004000503D2810B5BA
S1131A34044608D801236109074A04F01F04A3409B
S1131A4442F8213010BD4FF49471044800F06CFB4B
S1131A54002CF7DBEEE700BF00E100E0D42D00002A
S1131A643C2810B5044604D940F23311064800F06A
S1131A745BFB064B621153F8220004F01F04E040A0
S1131A84C04300F0010010BDD42D000000E100E0CB
S1131A94002808DB01224309034900F01F008240A7
S1131AA4603341F82320704700E100E038B500F1C9
S1131AB410034D2B04460D4604D94FF4EB710D4825
S1131AC400F032FB0F2D04D940F2D711094800F07D
S1131AD42BFB002CACBF04F16044074B4FEA051503
S1131AE4EDB2ABBF04F5614404F00F0484F8005371
S1131AF41D5538BDD42D000014ED00E010B500F0E0
S1131B0479FF0A4B1A786AB901226FF004041A7037
S1131B1400F06BFF204605210134FFF7C7FF3D2C7D
S1131B24F8D110BDBDE8104000F05FBFBA11002029
S1131B3470B500F05FFF144E05463478FCB9134BBE
S1131B441C60134B1C60134B1C6000F02BF8012029
S1131B5400F0ABFF00F010FF0F4B0246186020B9F1
S1131B64284600F042FF232070BD234640F2E731AB
S1131B740A4800F013F90A4B18600123337028460D
S1131B8400F033FF0020EFE7BD110020881100208E
S1131B9484110020901100208C11002018FCFFFFF8
S1131BA4801100201FB500241B4B18689A880290EA
S1131BB4D3F806009B7A00901848ADF80C208DF8F1
S1131BC4043000F0B3FB8DF8084000F0B8FB8DF846
S1131BD40C0002A8FFF7D6FB694601208DF80040EB
S1131BE4FFF782FB4FF0B0431F219A6922F01F02D2
S1131BF49A610B4A51619A6A12F00802FBD11A6283
S1131C040120FFF795FB0A20FFF742FF0A20FFF7A4
S1131C140DFF04B010BD00BFCC2E0000CC2D00007D
S1131C240020005810B500F0E5FE4FF0B043044620
S1131C345B691A07074A03F0010003F00D0348BF68
S1131C4440F00200536100F0C1FD2046BDE810409D
S1131C5400F0CBBE00200058024A137801331370FD
S1131C64704700BFBE11002007B5002301220A21DA
S1131C74CDE900320348044A00F06CFD03B05DF87A
S1131C8404FB00BF941100205D1C0000014B187874
S1131C94704700BFBE11002007B501A8FFF796FBEB
S1131CA49DF80530012B27D11C4A936DDB0313D413
S1131CB4536B23F4FF0323F4FE4343F4BC1343F4B0
S1131CC4A0635363136B23F4704343F440431363DB
S1131CD4136B43F4E06313639DF8043063B94FF06A
S1131CE400531B680E4B1B680E4B1B680E4B1B6882
S1131CF40E4B1B680E4B1B680E4AD2F8803043F01F
S1131D040303C2F88030FFF7F9FE00F016FB00F07D
S1131D140BFB03B05DF804EBFFF776BE00C0005084
S1131D24004000200080002000C0002000000120AA
S1131D340040012000800050014800F005BA00BFB3
S1131D44D82E0000014800F063BA00BFF02E000052
S1131D5470B5FFF79BFF0E4E0E4D33782A78C31AE5
S1131D640446DBB21AB1012A0AD0002306E0632B2D
S1131D7405D9094800F04FFA012334702B7070BD63
S1131D84632BFCD9044800F049FA3470EDE700BF32
S1131D94C0110020BF110020F02E000053B94AB92D
S1131DA4002908BF00281CBF4FF0FF314FF0FF305B
S1131DB400F082B9ADF1080C6DE904CE00F006F828
S1131DC4DDF804E0DDE9022304B070472DE9F04FA7
S1131DD4099D0C46002B4DD18A420F4684469646F3
S1131DE4B2FA82F360D94BB102FA03FEC3F12002C2
S1131DF49F4000FA03FC20FA02F217434FEA1E46FE
S1131E041FFA8EF44FEA1C42B7FBF6F106FB117776
S1131E1401FB04F042EA0742904208D91EEB020295
S1131E2401F1FF3702D2904200F231813946121A8D
S1131E341FFA8CFCB2FBF6F006FB102200FB04F440
S1131E444CEA024C644508D91EEB0C0C00F1FF3239
S1131E5402D2644500F21E81104640EA0140ACEB14
S1131E64040C002125B12CFA03F30022C5E9003245
S1131E74BDE8F08F8B4205D90DB1C5E900010021FD
S1131E840846F5E7B3FA83F100294DD1A342C0F023
S1131E94F380904280F0F080064623460846002DE5
S1131EA4E6D0C5E90063E3E7002B40F0A3808A1A77
S1131EB44FEA1E471FFA8EF60121B2FBF7F407FB23
S1131EC414204FEA1C4242EA004206FB04F090420A
S1131ED40FD91EEB020204F1FF382CBF4FF00109A5
S1131EE44FF00009904203D9B9F1000F00F0CC80FF
S1131EF44446121A1FFA8CFCB2FBF7F007FB1022BB
S1131F0400FB06F64CEA024C664508D91EEB0C0CA1
S1131F1400F1FF3202D2664500F2B3801046ACEB06
S1131F24060C40EA04409DE7C1F120068B4004FA04
S1131F3401FE22FA06F720FA06FCF4408A401F4305
S1131F444EEA0C0300FA01FE4FEA17484FEA13491C
S1131F541FFA87FCB4FBF8F008FB104449EA044474
S1131F6400FB0CF9A1450ED93C1900F1FF3A2CBF32
S1131F744FF0010B4FF0000BA14503D9BBF1000F47
S1131F8400F08B805046A4EB09041FFA83F9B4FBD8
S1131F94F8F308FB134403FB0CFC49EA0444A4458A
S1131FA406D93C1903F1FF3801D2A4457BD8434632
S1131FB443EA0040A4EB0C04A0FB02984445CC463D
S1131FC4434602D306D1CE4504D20138B9EB020C00
S1131FD468EB0703002D6CD0BEEB0C0264EB030426
S1131FE422FA01F304FA06F6CC4000211E43C5E9A3
S1131FF400643DE702FA03FEC3F1200104FA03F28C
S113200400FA03FCCC404FEA1E4720FA01F11FFA00
S11320148EF6B4FBF7F00A4307FB1044110C41EAB3
S1132024044100FB06F48C420ED91EEB010100F1BD
S1132034FF382CBF4FF001094FF000098C4202D93C
S1132044B9F1000F2CD04046091B92B2B1FBF7F44E
S113205407FB141142EA014204FB06F1914207D939
S11320641EEB020204F1FF3801D291421ED8444609
S1132074521A44EA004120E7861A64EB0303012060
S11320840DE7F44402384AE7023C724431E702396A
S11320947244CCE6F4440238DFE602383C4472E786
S11320A402387144D0E7023B3C4481E7023C724469
S11320B4DEE72946DCE600BF704700BF08B5064BDF
S11320C4044613B10021AFF30080044B1B6803B131
S11320D49847204600F029F800000000B4110020BD
S11320E470B50D4D00260D4C641BA410A64209D1F5
S11320F40B4D00260B4C00F0F1FC641BA410A6420B
S113210405D170BD55F8043B01369847EEE755F800
S1132114043B01369847F2E7E0110020E011002067
S1132124E0110020E4110020FEE7FEE7FEE70023AF
S11321349A4200D1704710B550F8234041F8234027
S113214401339A42F8D110BD436803B118472220E1
S11321547047704737B50D680C46AB88ADF804304A
S11321642B78022B0CD00DF1030101A8FEF762FABF
S11321749DF80330204683F001032B70FFF7E9FF39
S113218403B030BD03681878704713B50468A38896
S1132194ADF804302378022B15D00DF1030101A806
S11321A4FEF748FAA2799DF80330012A13D1618815
S11321B443EA41034FF6E07163F03F039BB28B4261
S11321C403D12270638002B010BD4FF6DF729342D4
S11321D4F8D10022F5E7002AF5D183F00103237036
S11321E4F1E703681A78022A03D100225A80FEF721
S11321F497B8704710B504682378022B07D0A379E5
S1132204022B02D16079FEF7B7FA0223237010BDC2
S1132214D0E900031847836800681847C368006856
S1132224184707B503788DF8043043788DF80530E2
S1132234837801A823B9FEF771F903B05DF804FBB0
S1132244FEF740F9F9E707B503788DF804304378CD
S11322548DF80530837801A823B9FEF733F903B068
S11322645DF804FBFEF75AF9F9E707B503788DF82E
S11322740430437801A88DF80530FEF77BF903B0E8
S11322845DF804FB13B5044603780DF103018DF8DE
S11322940430437801A88DF80530FEF799F9A37842
S11322A49DF803000BB980F0010002B010BD08B51D
S11322B400F0BCF8BDE808400021FEF781BB022110
S11322C40320FEF7FFBD4FF0B0435A6812B19A6A77
S11322D4002AFAD1704770B5054614460E4600F03C
S11322E480FB2B685C4034405C402C60BDE870404B
S11322F400F072BB21FA00F2D20730B5034600F0B5
S1132304FC040FD500220132D2B2042A02D14FF0C8
S1132314FF3008E0831803F00303234421FA03F590
S1132324ED07F0D4184630BD00F003B8012100F0E5
S113233402B80020704700207047FFF7E1BA00207C
S1132344704708B5FFF7A8FC00F015F800F01CF876
S113235400F01CF8BDE8084000F019B808B500F016
S113236417F800F016F800F015F8BDE8084000F07E
S113237412B8FFF7EDBC08B5FEF748F8FFF7DCFC2C
S1132384BDE80840FFF7DEBCFFF7D2BB70477047D7
S1132394704770477047704708B5FFF7D2FFFFF7DF
S11323A463FCFFF7DBFFFFF7E4FFFAE702440346AD
S11323B4934200D1704703F8011BF9E7014B1868F5
S11323C4704700BFC81100200A4B1B6F03F00703BA
S11323D4013B032B03D8DFE803F00A030608FEE7F6
S11323E4054B18687047054BFBE7054870470548DB
S11323F4704700BF00800050C8110020D011002095
S113240480D54302002D310108B5FFF7DDFF054BEC
S11324141B6FC3F301330133B0FBF3F0024B1860B9
S113242408BD00BF00800050C4110020004870475C
S113243400B4C40400487047002D3101014B1868EE
S1132444704700BFD01100200048704780D5430274
S1132454174B9868C0F304400C280AD8DFE800F04E
S11324640B0909090909072119091B1D1F00114832
S11324747047002070479B6803F04073B3F1807F7A
S113248411D0B3F1007F10D00B4A002B08BF1046C3
S113249470470A4870470A4870470A4870470A4810
S11324A470470A4870470A4870470A48704700BF93
S11324B40040015A405DC60000093D00C0EA210104
S11324C480BA8C010048E801005A62020024F40036
S11324D480841E0040420F00014B1868704700BFFF
S11324E4CC11002010B5044620B940F2A3111248BF
S11324F4FFF71AFE2378E3B1013BDBB2022B05D8C4
S11325040E4AD35C6278D340DB0704D44FF4D2710F
S11325140948FFF709FE0122617823788A403021B3
S11325244B4341F2100103F1A04303F570335A50B5
S113253410BD7F23E6E700BF892C0000BD2D0000F9
S113254430B50E4C416123688BB9206083600DE083
S1132554891A9A681D4641616AB113465A698A42C6
S1132564F6D935B1A860521A83605A6130BD00258A
S1132574F4E72060F7E798608260F7E788110020A9
S11325840D490B68A0B10022A3B1834203D183682F
S113259422B90B6003E01A469B68F5E793608368ED
S11325A40BB9002070475A6941690A445A61F8E733
S11325B422207047022070478811002038B500F0AB
S11325C46DFA0025084B094C1A682368C31A2AB10A
S11325D423B15169994203D3C91A5161206038BDAA
S11325E455615B1A9268F2E7881100208411002077
S11325F438B5154D2B682BB35B69A3B1134A02207C
S113260414681C4400F051FA204600F083F90023B6
S11326140F492A680B7022B1D08880070AD5012398
S11326240B70002038BD022000F03FFA022000F0B5
S1132634CBF9ECE79268002AF3D050690344012BE8
S1132644EAD9EEE72220EDE7881100208411002066
S1132654BC11002070B516469DF81420C0E9033659
S11326640271049ABDF818300260002204460D4633
S11326748260C380EEB900F011FA2844A0619DB1D0
S11326842E4600F0AEF90546FFF798FF3146204682
S1132694FFF756FF104B1B68A34201D1FFF7A8FFB5
S11326A4284600F099F902E0E36865617BB90020EB
S11326B470BD00F0F3F93044A061002DE0D1E3686B
S11326C46561002BDDD0204621689847D9E7204670
S11326D421689847EBE700BF8811002038B50C4601
S11326E40546A8B1A1B100230B7000F083F90121C0
S11326F4084B1B6833B900F078F9002038BD9D42BB
S113270404D121702278002AF9D0F4E79B68F1E718
S11327142220F3E788110020F8B50C4B05461B680A
S11327240E4683420FD3002440F2E7302146084B7F
S11327344FF47A721F680023E5FB0701FFF72EFBB1
S113274430602046F8BD2120FCE700BF8011002042
S11327548C110020F0B51F46002387B00C461646A2
S113276405468DF8133050B30DF11301FFF7B6FF8E
S11327749DF813302BBB204605A9FFF7CDFFE0B924
S1132784114BE8831B6828465C434FF47A73B4FB0B
S1132794F3F203FB1244191B89B2994208BF0021C6
S11327A4BDF83430A983059A02939DF8303011465C
S11327B4CDE900733346FFF74DFF07B0F0BD222087
S11327C4FBE70220F9E700BF8C110020C2072DE9C2
S11327D4F843044607D54B4A136801331360FFF7E3
S11327E4EDFEFFF705FFA30740F18A8000F002F92C
S11327F44FF0000805464646FFF7E0FE424F3C68AA
S11328040CB16369A3B10022404B012E1A7003D1A9
S113281418F0020F18BF1E70FFF7EAFE222802D137
S1132824022000F0B9F82846BDE8F84300F0DDB80A
S113283423465A693AB91A792179914288BF1C46C8
S11328449B68002BF5D1284600F0CFF82569DDB14B
S113285400F024F9A269A0EB02084FEAE873A84542
S113286473F1000311DB23691344A361E36813B117
S1132874204621689847B4F8068000F0BBF8013676
S11328840546FFF79BFEBAE7A84600F0B3F8814675
S11328942046FFF775FE484600F0A7F82369002B8D
S11328A4E4D0B5EB08054FEAE87363EB4303012D69
S11328B473F1000304DA4FF4C9611548FFF734FCDB
S11328C4A38B33B1E28B13449BB2B3F57A7F0FD25B
S11328D4E38300F08FF8804629462046FFF730FE54
S11328E4A369226940461344A36100F07EF8BDE75E
S11328F4A3F57A73E383A369013D013BA361E8E78C
S1132904BDE8F8839011002088110020BB11002039
S11329145B2E000010B5044600F063F84FF0B0429B
S1132924936A1907FCD4136A116C5269120704D40C
S1132934CA1A032A01D88B420ED1E21A022A98BF7A
S1132944DC1CB4F1FF3F38BF013C4FF0B0431C64BE
S11329549A6942F008029A6100F03EF8054A137835
S11329643BB14FF0B041CB6B43F00203CB63002384
S1132974137010BDDC11002007B5064B01A91879AA
S113298400F044F8FFF7DBFC019B23FA00F003B0EA
S11329945DF804FBC02D0000820700F001030AD592
S11329A40121084A43F0080311704FF0B041CA6B87
S11329B422F00302CA634FF0B0418A6922EA030396
S11329C48B617047DC110020830742BF0822014B4E
S11329D45A6170470010005810B962B6BFF36F8F84
S11329E47047EFF3108072B6704780F31188BFF319
S11329F46F8F7047EFF31180302383F3118870478E
S1132A044FF4004070474FF47A70704709B100F0F6
S1132A1402B82220704770B506460D46FFF7EAFF58
S1132A2404461C2E37D8DFE806F00F18361C1E2087
S1132A343622243636362628362A2C2E3036363696
S1132A443436363636363200FFF7BEFC00262860AC
S1132A542046FFF7CAFF304670BD0120FEF7A0F9F7
S1132A64F4E70320FAE70420F8E70C20F6E7022051
S1132A74F4E70620F2E70720F0E70820EEE7052054
S1132A84ECE70920EAE70A20E8E70D20E6E710204E
S1132A94E4E70B20E2E700202126D8E74FF0B04317
S1132AA49A6A1207FCD4186A704782074FF0B0423E
S1132AB400F00103916948BF43F008030B43936199
S1132AC47047000000000000000000000000000047
S1132AD4000000000000000000000000F8B500BF82
S1132AE4F8BC08BC9E467047F8B500BFF8BC08BCE7
S1132AF49E467047433A2F55736572732F636F6E06
S1132B046E732F2E73696C6162732F736C742F69E7
S1132B146E7374616C6C732F636F6E616E2F702FA0
S1132B2473696D706C343138646439626466613419
S1132B3434622F702F706C6174666F726D2F6472BF
S1132B44697665722F627574746F6E2F7372632F56
S1132B54736C5F73696D706C655F627574746F6EAA
S1132B642E6300433A2F55736572732F636F6E6E31
S1132B74732F2E73696C6162732F736C742F696E77
S1132B847374616C6C732F636F6E616E2F702F732B
S1132B94696D706C343138646439626466613434E8
S1132BA4622F702F706C6174666F726D2F6472691A
S1132BB47665722F6770696F2F7372632F736C5FFE
S1132BC46770696F2E6300033F1F433A2F55736583
S1132BD472732F636F6E6E732F2E73696C616273DD
S1132BE42F736C742F696E7374616C6C732F636FC1
S1132BF46E616E2F702F73696D706C343138646438
S1132C0439626466613434622F702F706C61746647
S1132C146F726D2F656D6C69622F7372632F656DAE
S1132C245F636D752E6300433A2F55736572732F7A
S1132C34636F6E6E732F2E73696C6162732F736C82
S1132C44742F696E7374616C6C732F636F6E616E31
S1132C542F702F73696D706C343138646439626415
S1132C6466613434622F702F706C6174666F726D98
S1132C742F656D6C69622F7372632F656D5F727457
S1132C8463632E6300433A2F55736572732F636F26
S1132C946E6E732F2E73696C6162732F736C742F51
S1132CA4696E7374616C6C732F636F6E616E2F70D5
S1132CB42F73696D706C343138646439626466618D
S1132CC43434622F702F706C6174666F726D2F7060
S1132CD465726970686572616C2F696E632F736CB9
S1132CE45F68616C5F6770696F2E6800433A2F55A3
S1132CF4736572732F636F6E6E732F2E73696C61B9
S1132D0462732F736C742F696E7374616C6C732F9C
S1132D14636F6E616E2F702F73696D706C3431380C
S1132D24646439626466613434622F702F706C6138
S1132D3474666F726D2F7065726970686572616C08
S1132D442F7372632F736C5F68616C5F6770696F54
S1132D542E6300433A2F55736572732F636F6E6E3F
S1132D64732F2E73696C6162732F736C742F696E85
S1132D747374616C6C732F636F6E616E2F702F7339
S1132D84696D706C343138646439626466613434F6
S1132D94622F702F706C6174666F726D2F70657220
S1132DA46970686572616C2F696E632F736C5F68F8
S1132DB4616C5F6275732E6800033F1F0000005846
S1132DC41200000000000000FFFFFFFFFFFFFFFFF1
S1132DD4433A2F55736572732F636F6E6E732F2E80
S1132DE473696C6162732F736C742F696E7374618D
S1132DF46C6C732F636F6E616E2F702F73696D70BB
S1132E046C343138646439626466613434622F70BA
S1132E142F706C6174666F726D2F7365727669635B
S1132E24652F696E746572727570745F6D616E611D
S1132E346765722F7372632F736C5F696E74657246
S1132E44727570745F6D616E616765725F636F72D2
S1132E547465786D2E6300433A2F55736572732F2E
S1132E64636F6E6E732F2E73696C6162732F736C50
S1132E74742F696E7374616C6C732F636F6E616EFF
S1132E842F702F73696D706C3431386464396264E3
S1132E9466613434622F702F706C6174666F726D66
S1132EA42F736572766963652F736C6565707469D5
S1132EB46D65722F7372632F736C5F736C656570C9
S1132EC474696D65722E6300010000000500020040
S1132ED400030000D4110020250300008F2100000A
S1132EE4E7210000F921000089210000DD11002000
S1132EF4B9080000272200004B2200006F220000C2
S1072F04892200001A
S10B2F08BCD2FF7F01000000B0
S10F2F101C2F0000C41100200900000068
S1132F1CC0EA2101C0EA21010080000000F049024E
S1132F2C000000000301010001030001A1010000E5
S1072F3C7901000013
S903025D9D
